{
  "_format": "hh-sol-artifact-1",
  "contractName": "NFT",
  "sourceName": "contracts/createNFT.sol",
  "abi": [
    {
      "inputs": [],
      "stateMutability": "nonpayable",
      "type": "constructor"
    },
    {
      "anonymous": false,
      "inputs": [
        {
          "indexed": true,
          "internalType": "address",
          "name": "owner",
          "type": "address"
        },
        {
          "indexed": true,
          "internalType": "address",
          "name": "approved",
          "type": "address"
        },
        {
          "indexed": true,
          "internalType": "uint256",
          "name": "tokenId",
          "type": "uint256"
        }
      ],
      "name": "Approval",
      "type": "event"
    },
    {
      "anonymous": false,
      "inputs": [
        {
          "indexed": true,
          "internalType": "address",
          "name": "owner",
          "type": "address"
        },
        {
          "indexed": true,
          "internalType": "address",
          "name": "operator",
          "type": "address"
        },
        {
          "indexed": false,
          "internalType": "bool",
          "name": "approved",
          "type": "bool"
        }
      ],
      "name": "ApprovalForAll",
      "type": "event"
    },
    {
      "anonymous": false,
      "inputs": [
        {
          "indexed": true,
          "internalType": "address",
          "name": "from",
          "type": "address"
        },
        {
          "indexed": true,
          "internalType": "address",
          "name": "to",
          "type": "address"
        },
        {
          "indexed": true,
          "internalType": "uint256",
          "name": "tokenId",
          "type": "uint256"
        }
      ],
      "name": "Transfer",
      "type": "event"
    },
    {
      "inputs": [
        {
          "internalType": "address",
          "name": "to",
          "type": "address"
        },
        {
          "internalType": "uint256",
          "name": "tokenId",
          "type": "uint256"
        }
      ],
      "name": "approve",
      "outputs": [],
      "stateMutability": "nonpayable",
      "type": "function"
    },
    {
      "inputs": [
        {
          "internalType": "address",
          "name": "owner",
          "type": "address"
        }
      ],
      "name": "balanceOf",
      "outputs": [
        {
          "internalType": "uint256",
          "name": "",
          "type": "uint256"
        }
      ],
      "stateMutability": "view",
      "type": "function"
    },
    {
      "inputs": [],
      "name": "baseTokenURI",
      "outputs": [
        {
          "internalType": "string",
          "name": "",
          "type": "string"
        }
      ],
      "stateMutability": "view",
      "type": "function"
    },
    {
      "inputs": [
        {
          "internalType": "uint256",
          "name": "tokenId",
          "type": "uint256"
        }
      ],
      "name": "getApproved",
      "outputs": [
        {
          "internalType": "address",
          "name": "",
          "type": "address"
        }
      ],
      "stateMutability": "view",
      "type": "function"
    },
    {
      "inputs": [
        {
          "internalType": "address",
          "name": "owner",
          "type": "address"
        },
        {
          "internalType": "address",
          "name": "operator",
          "type": "address"
        }
      ],
      "name": "isApprovedForAll",
      "outputs": [
        {
          "internalType": "bool",
          "name": "",
          "type": "bool"
        }
      ],
      "stateMutability": "view",
      "type": "function"
    },
    {
      "inputs": [],
      "name": "mintNFTs",
      "outputs": [
        {
          "internalType": "uint256",
          "name": "",
          "type": "uint256"
        }
      ],
      "stateMutability": "nonpayable",
      "type": "function"
    },
    {
      "inputs": [],
      "name": "name",
      "outputs": [
        {
          "internalType": "string",
          "name": "",
          "type": "string"
        }
      ],
      "stateMutability": "view",
      "type": "function"
    },
    {
      "inputs": [
        {
          "internalType": "uint256",
          "name": "tokenId",
          "type": "uint256"
        }
      ],
      "name": "ownerOf",
      "outputs": [
        {
          "internalType": "address",
          "name": "",
          "type": "address"
        }
      ],
      "stateMutability": "view",
      "type": "function"
    },
    {
      "inputs": [
        {
          "internalType": "address",
          "name": "from",
          "type": "address"
        },
        {
          "internalType": "address",
          "name": "to",
          "type": "address"
        },
        {
          "internalType": "uint256",
          "name": "tokenId",
          "type": "uint256"
        }
      ],
      "name": "safeTransferFrom",
      "outputs": [],
      "stateMutability": "nonpayable",
      "type": "function"
    },
    {
      "inputs": [
        {
          "internalType": "address",
          "name": "from",
          "type": "address"
        },
        {
          "internalType": "address",
          "name": "to",
          "type": "address"
        },
        {
          "internalType": "uint256",
          "name": "tokenId",
          "type": "uint256"
        },
        {
          "internalType": "bytes",
          "name": "data",
          "type": "bytes"
        }
      ],
      "name": "safeTransferFrom",
      "outputs": [],
      "stateMutability": "nonpayable",
      "type": "function"
    },
    {
      "inputs": [
        {
          "internalType": "address",
          "name": "operator",
          "type": "address"
        },
        {
          "internalType": "bool",
          "name": "approved",
          "type": "bool"
        }
      ],
      "name": "setApprovalForAll",
      "outputs": [],
      "stateMutability": "nonpayable",
      "type": "function"
    },
    {
      "inputs": [
        {
          "internalType": "string",
          "name": "_baseTokenURI",
          "type": "string"
        }
      ],
      "name": "setBaseTokenURI",
      "outputs": [],
      "stateMutability": "nonpayable",
      "type": "function"
    },
    {
      "inputs": [
        {
          "internalType": "bytes4",
          "name": "interfaceId",
          "type": "bytes4"
        }
      ],
      "name": "supportsInterface",
      "outputs": [
        {
          "internalType": "bool",
          "name": "",
          "type": "bool"
        }
      ],
      "stateMutability": "view",
      "type": "function"
    },
    {
      "inputs": [],
      "name": "symbol",
      "outputs": [
        {
          "internalType": "string",
          "name": "",
          "type": "string"
        }
      ],
      "stateMutability": "view",
      "type": "function"
    },
    {
      "inputs": [
        {
          "internalType": "uint256",
          "name": "index",
          "type": "uint256"
        }
      ],
      "name": "tokenByIndex",
      "outputs": [
        {
          "internalType": "uint256",
          "name": "",
          "type": "uint256"
        }
      ],
      "stateMutability": "view",
      "type": "function"
    },
    {
      "inputs": [
        {
          "internalType": "address",
          "name": "owner",
          "type": "address"
        },
        {
          "internalType": "uint256",
          "name": "index",
          "type": "uint256"
        }
      ],
      "name": "tokenOfOwnerByIndex",
      "outputs": [
        {
          "internalType": "uint256",
          "name": "",
          "type": "uint256"
        }
      ],
      "stateMutability": "view",
      "type": "function"
    },
    {
      "inputs": [
        {
          "internalType": "uint256",
          "name": "tokenId",
          "type": "uint256"
        }
      ],
      "name": "tokenURI",
      "outputs": [
        {
          "internalType": "string",
          "name": "",
          "type": "string"
        }
      ],
      "stateMutability": "view",
      "type": "function"
    },
    {
      "inputs": [],
      "name": "totalSupply",
      "outputs": [
        {
          "internalType": "uint256",
          "name": "",
          "type": "uint256"
        }
      ],
      "stateMutability": "view",
      "type": "function"
    },
    {
      "inputs": [
        {
          "internalType": "address",
          "name": "from",
          "type": "address"
        },
        {
          "internalType": "address",
          "name": "to",
          "type": "address"
        },
        {
          "internalType": "uint256",
          "name": "tokenId",
          "type": "uint256"
        }
      ],
      "name": "transferFrom",
      "outputs": [],
      "stateMutability": "nonpayable",
      "type": "function"
    }
  ],
  "bytecode": "0x60806040523480156200001157600080fd5b506040518060400160405280600a81526020017f4e465444697050726f6a000000000000000000000000000000000000000000008152506040518060400160405280600381526020017f4e4654000000000000000000000000000000000000000000000000000000000081525081600090816200008f919062000345565b508060019081620000a1919062000345565b50505060405180602001604052806000815250600b9081620000c4919062000345565b506200042c565b600081519050919050565b7f4e487b7100000000000000000000000000000000000000000000000000000000600052604160045260246000fd5b7f4e487b7100000000000000000000000000000000000000000000000000000000600052602260045260246000fd5b600060028204905060018216806200014d57607f821691505b60208210810362000163576200016262000105565b5b50919050565b60008190508160005260206000209050919050565b60006020601f8301049050919050565b600082821b905092915050565b600060088302620001cd7fffffffffffffffffffffffffffffffffffffffffffffffffffffffffffffffff826200018e565b620001d986836200018e565b95508019841693508086168417925050509392505050565b6000819050919050565b6000819050919050565b600062000226620002206200021a84620001f1565b620001fb565b620001f1565b9050919050565b6000819050919050565b620002428362000205565b6200025a62000251826200022d565b8484546200019b565b825550505050565b600090565b6200027162000262565b6200027e81848462000237565b505050565b5b81811015620002a6576200029a60008262000267565b60018101905062000284565b5050565b601f821115620002f557620002bf8162000169565b620002ca846200017e565b81016020851015620002da578190505b620002f2620002e9856200017e565b83018262000283565b50505b505050565b600082821c905092915050565b60006200031a60001984600802620002fa565b1980831691505092915050565b600062000335838362000307565b9150826002028217905092915050565b6200035082620000cb565b67ffffffffffffffff8111156200036c576200036b620000d6565b5b62000378825462000134565b62000385828285620002aa565b600060209050601f831160018114620003bd5760008415620003a8578287015190505b620003b4858262000327565b86555062000424565b601f198416620003cd8662000169565b60005b82811015620003f757848901518255600182019150602085019450602081019050620003d0565b8683101562000417578489015162000413601f89168262000307565b8355505b6001600288020188555050505b505050505050565b613455806200043c6000396000f3fe608060405234801561001057600080fd5b50600436106101215760003560e01c80634af57f9d116100ad578063a22cb46511610071578063a22cb4651461032e578063b88d4fde1461034a578063c87b56dd14610366578063d547cfb714610396578063e985e9c5146103b457610121565b80634af57f9d146102625780634f6ccce7146102805780636352211e146102b057806370a08231146102e057806395d89b411461031057610121565b806318160ddd116100f457806318160ddd146101c057806323b872dd146101de5780632f745c59146101fa57806330176e131461022a57806342842e0e1461024657610121565b806301ffc9a71461012657806306fdde0314610156578063081812fc14610174578063095ea7b3146101a4575b600080fd5b610140600480360381019061013b919061213e565b6103e4565b60405161014d9190612186565b60405180910390f35b61015e61045e565b60405161016b9190612231565b60405180910390f35b61018e60048036038101906101899190612289565b6104f0565b60405161019b91906122f7565b60405180910390f35b6101be60048036038101906101b9919061233e565b610536565b005b6101c861064d565b6040516101d5919061238d565b60405180910390f35b6101f860048036038101906101f391906123a8565b61065a565b005b610214600480360381019061020f919061233e565b6106ba565b604051610221919061238d565b60405180910390f35b610244600480360381019061023f9190612530565b61075f565b005b610260600480360381019061025b91906123a8565b610772565b005b61026a610792565b604051610277919061238d565b60405180910390f35b61029a60048036038101906102959190612289565b6107bd565b6040516102a7919061238d565b60405180910390f35b6102ca60048036038101906102c59190612289565b61082e565b6040516102d791906122f7565b60405180910390f35b6102fa60048036038101906102f59190612579565b6108b4565b604051610307919061238d565b60405180910390f35b61031861096b565b6040516103259190612231565b60405180910390f35b610348600480360381019061034391906125d2565b6109fd565b005b610364600480360381019061035f91906126b3565b610a13565b005b610380600480360381019061037b9190612289565b610a75565b60405161038d9190612231565b60405180910390f35b61039e610add565b6040516103ab9190612231565b60405180910390f35b6103ce60048036038101906103c99190612736565b610b6b565b6040516103db9190612186565b60405180910390f35b60007f780e9d63000000000000000000000000000000000000000000000000000000007bffffffffffffffffffffffffffffffffffffffffffffffffffffffff1916827bffffffffffffffffffffffffffffffffffffffffffffffffffffffff19161480610457575061045682610bff565b5b9050919050565b60606000805461046d906127a5565b80601f0160208091040260200160405190810160405280929190818152602001828054610499906127a5565b80156104e65780601f106104bb576101008083540402835291602001916104e6565b820191906000526020600020905b8154815290600101906020018083116104c957829003601f168201915b5050505050905090565b60006104fb82610ce1565b6004600083815260200190815260200160002060009054906101000a900473ffffffffffffffffffffffffffffffffffffffff169050919050565b60006105418261082e565b90508073ffffffffffffffffffffffffffffffffffffffff168373ffffffffffffffffffffffffffffffffffffffff16036105b1576040517f08c379a00000000000000000000000000000000000000000000000000000000081526004016105a890612848565b60405180910390fd5b8073ffffffffffffffffffffffffffffffffffffffff166105d0610d2c565b73ffffffffffffffffffffffffffffffffffffffff1614806105ff57506105fe816105f9610d2c565b610b6b565b5b61063e576040517f08c379a0000000000000000000000000000000000000000000000000000000008152600401610635906128da565b60405180910390fd5b6106488383610d34565b505050565b6000600880549050905090565b61066b610665610d2c565b82610ded565b6106aa576040517f08c379a00000000000000000000000000000000000000000000000000000000081526004016106a19061296c565b60405180910390fd5b6106b5838383610e82565b505050565b60006106c5836108b4565b8210610706576040517f08c379a00000000000000000000000000000000000000000000000000000000081526004016106fd906129fe565b60405180910390fd5b600660008473ffffffffffffffffffffffffffffffffffffffff1673ffffffffffffffffffffffffffffffffffffffff168152602001908152602001600020600083815260200190815260200160002054905092915050565b80600b908161076e9190612bca565b5050565b61078d83838360405180602001604052806000815250610a13565b505050565b600061079e600a61117b565b60006107aa600a611191565b90506107b6338261119f565b8091505090565b60006107c761064d565b8210610808576040517f08c379a00000000000000000000000000000000000000000000000000000000081526004016107ff90612d0e565b60405180910390fd5b6008828154811061081c5761081b612d2e565b5b90600052602060002001549050919050565b60008061083a836111bd565b9050600073ffffffffffffffffffffffffffffffffffffffff168173ffffffffffffffffffffffffffffffffffffffff16036108ab576040517f08c379a00000000000000000000000000000000000000000000000000000000081526004016108a290612da9565b60405180910390fd5b80915050919050565b60008073ffffffffffffffffffffffffffffffffffffffff168273ffffffffffffffffffffffffffffffffffffffff1603610924576040517f08c379a000000000000000000000000000000000000000000000000000000000815260040161091b90612e3b565b60405180910390fd5b600360008373ffffffffffffffffffffffffffffffffffffffff1673ffffffffffffffffffffffffffffffffffffffff168152602001908152602001600020549050919050565b60606001805461097a906127a5565b80601f01602080910402602001604051908101604052809291908181526020018280546109a6906127a5565b80156109f35780601f106109c8576101008083540402835291602001916109f3565b820191906000526020600020905b8154815290600101906020018083116109d657829003601f168201915b5050505050905090565b610a0f610a08610d2c565b83836111fa565b5050565b610a24610a1e610d2c565b83610ded565b610a63576040517f08c379a0000000000000000000000000000000000000000000000000000000008152600401610a5a9061296c565b60405180910390fd5b610a6f84848484611366565b50505050565b6060610a8082610ce1565b6000610a8a6113c2565b90506000815111610aaa5760405180602001604052806000815250610ad5565b80610ab484611454565b604051602001610ac5929190612e97565b6040516020818303038152906040525b915050919050565b600b8054610aea906127a5565b80601f0160208091040260200160405190810160405280929190818152602001828054610b16906127a5565b8015610b635780601f10610b3857610100808354040283529160200191610b63565b820191906000526020600020905b815481529060010190602001808311610b4657829003601f168201915b505050505081565b6000600560008473ffffffffffffffffffffffffffffffffffffffff1673ffffffffffffffffffffffffffffffffffffffff16815260200190815260200160002060008373ffffffffffffffffffffffffffffffffffffffff1673ffffffffffffffffffffffffffffffffffffffff16815260200190815260200160002060009054906101000a900460ff16905092915050565b60007f80ac58cd000000000000000000000000000000000000000000000000000000007bffffffffffffffffffffffffffffffffffffffffffffffffffffffff1916827bffffffffffffffffffffffffffffffffffffffffffffffffffffffff19161480610cca57507f5b5e139f000000000000000000000000000000000000000000000000000000007bffffffffffffffffffffffffffffffffffffffffffffffffffffffff1916827bffffffffffffffffffffffffffffffffffffffffffffffffffffffff1916145b80610cda5750610cd982611522565b5b9050919050565b610cea8161158c565b610d29576040517f08c379a0000000000000000000000000000000000000000000000000000000008152600401610d2090612da9565b60405180910390fd5b50565b600033905090565b816004600083815260200190815260200160002060006101000a81548173ffffffffffffffffffffffffffffffffffffffff021916908373ffffffffffffffffffffffffffffffffffffffff160217905550808273ffffffffffffffffffffffffffffffffffffffff16610da78361082e565b73ffffffffffffffffffffffffffffffffffffffff167f8c5be1e5ebec7d5bd14f71427d1e84f3dd0314c0f7b2291e5b200ac8c7c3b92560405160405180910390a45050565b600080610df98361082e565b90508073ffffffffffffffffffffffffffffffffffffffff168473ffffffffffffffffffffffffffffffffffffffff161480610e3b5750610e3a8185610b6b565b5b80610e7957508373ffffffffffffffffffffffffffffffffffffffff16610e61846104f0565b73ffffffffffffffffffffffffffffffffffffffff16145b91505092915050565b8273ffffffffffffffffffffffffffffffffffffffff16610ea28261082e565b73ffffffffffffffffffffffffffffffffffffffff1614610ef8576040517f08c379a0000000000000000000000000000000000000000000000000000000008152600401610eef90612f2d565b60405180910390fd5b600073ffffffffffffffffffffffffffffffffffffffff168273ffffffffffffffffffffffffffffffffffffffff1603610f67576040517f08c379a0000000000000000000000000000000000000000000000000000000008152600401610f5e90612fbf565b60405180910390fd5b610f7483838360016115cd565b8273ffffffffffffffffffffffffffffffffffffffff16610f948261082e565b73ffffffffffffffffffffffffffffffffffffffff1614610fea576040517f08c379a0000000000000000000000000000000000000000000000000000000008152600401610fe190612f2d565b60405180910390fd5b6004600082815260200190815260200160002060006101000a81549073ffffffffffffffffffffffffffffffffffffffff02191690556001600360008573ffffffffffffffffffffffffffffffffffffffff1673ffffffffffffffffffffffffffffffffffffffff168152602001908152602001600020600082825403925050819055506001600360008473ffffffffffffffffffffffffffffffffffffffff1673ffffffffffffffffffffffffffffffffffffffff16815260200190815260200160002060008282540192505081905550816002600083815260200190815260200160002060006101000a81548173ffffffffffffffffffffffffffffffffffffffff021916908373ffffffffffffffffffffffffffffffffffffffff160217905550808273ffffffffffffffffffffffffffffffffffffffff168473ffffffffffffffffffffffffffffffffffffffff167fddf252ad1be2c89b69c2b068fc378daa952ba7f163c4a11628f55a4df523b3ef60405160405180910390a4611176838383600161172b565b505050565b6001816000016000828254019250508190555050565b600081600001549050919050565b6111b9828260405180602001604052806000815250611731565b5050565b60006002600083815260200190815260200160002060009054906101000a900473ffffffffffffffffffffffffffffffffffffffff169050919050565b8173ffffffffffffffffffffffffffffffffffffffff168373ffffffffffffffffffffffffffffffffffffffff1603611268576040517f08c379a000000000000000000000000000000000000000000000000000000000815260040161125f9061302b565b60405180910390fd5b80600560008573ffffffffffffffffffffffffffffffffffffffff1673ffffffffffffffffffffffffffffffffffffffff16815260200190815260200160002060008473ffffffffffffffffffffffffffffffffffffffff1673ffffffffffffffffffffffffffffffffffffffff16815260200190815260200160002060006101000a81548160ff0219169083151502179055508173ffffffffffffffffffffffffffffffffffffffff168373ffffffffffffffffffffffffffffffffffffffff167f17307eab39ab6107e8899845ad3d59bd9653f200f220920489ca2b5937696c31836040516113599190612186565b60405180910390a3505050565b611371848484610e82565b61137d8484848461178c565b6113bc576040517f08c379a00000000000000000000000000000000000000000000000000000000081526004016113b3906130bd565b60405180910390fd5b50505050565b6060600b80546113d1906127a5565b80601f01602080910402602001604051908101604052809291908181526020018280546113fd906127a5565b801561144a5780601f1061141f5761010080835404028352916020019161144a565b820191906000526020600020905b81548152906001019060200180831161142d57829003601f168201915b5050505050905090565b60606000600161146384611913565b01905060008167ffffffffffffffff81111561148257611481612405565b5b6040519080825280601f01601f1916602001820160405280156114b45781602001600182028036833780820191505090505b509050600082602001820190505b600115611517578080600190039150507f3031323334353637383961626364656600000000000000000000000000000000600a86061a8153600a858161150b5761150a6130dd565b5b049450600085036114c2575b819350505050919050565b60007f01ffc9a7000000000000000000000000000000000000000000000000000000007bffffffffffffffffffffffffffffffffffffffffffffffffffffffff1916827bffffffffffffffffffffffffffffffffffffffffffffffffffffffff1916149050919050565b60008073ffffffffffffffffffffffffffffffffffffffff166115ae836111bd565b73ffffffffffffffffffffffffffffffffffffffff1614159050919050565b6115d984848484611a66565b600181111561161d576040517f08c379a00000000000000000000000000000000000000000000000000000000081526004016116149061317e565b60405180910390fd5b6000829050600073ffffffffffffffffffffffffffffffffffffffff168573ffffffffffffffffffffffffffffffffffffffff16036116645761165f81611b8c565b6116a3565b8373ffffffffffffffffffffffffffffffffffffffff168573ffffffffffffffffffffffffffffffffffffffff16146116a2576116a18582611bd5565b5b5b600073ffffffffffffffffffffffffffffffffffffffff168473ffffffffffffffffffffffffffffffffffffffff16036116e5576116e081611d42565b611724565b8473ffffffffffffffffffffffffffffffffffffffff168473ffffffffffffffffffffffffffffffffffffffff1614611723576117228482611e13565b5b5b5050505050565b50505050565b61173b8383611e92565b611748600084848461178c565b611787576040517f08c379a000000000000000000000000000000000000000000000000000000000815260040161177e906130bd565b60405180910390fd5b505050565b60006117ad8473ffffffffffffffffffffffffffffffffffffffff166120af565b15611906578373ffffffffffffffffffffffffffffffffffffffff1663150b7a026117d6610d2c565b8786866040518563ffffffff1660e01b81526004016117f894939291906131f3565b6020604051808303816000875af192505050801561183457506040513d601f19601f820116820180604052508101906118319190613254565b60015b6118b6573d8060008114611864576040519150601f19603f3d011682016040523d82523d6000602084013e611869565b606091505b5060008151036118ae576040517f08c379a00000000000000000000000000000000000000000000000000000000081526004016118a5906130bd565b60405180910390fd5b805181602001fd5b63150b7a0260e01b7bffffffffffffffffffffffffffffffffffffffffffffffffffffffff1916817bffffffffffffffffffffffffffffffffffffffffffffffffffffffff19161491505061190b565b600190505b949350505050565b600080600090507a184f03e93ff9f4daa797ed6e38ed64bf6a1f0100000000000000008310611971577a184f03e93ff9f4daa797ed6e38ed64bf6a1f0100000000000000008381611967576119666130dd565b5b0492506040810190505b6d04ee2d6d415b85acef810000000083106119ae576d04ee2d6d415b85acef810000000083816119a4576119a36130dd565b5b0492506020810190505b662386f26fc1000083106119dd57662386f26fc1000083816119d3576119d26130dd565b5b0492506010810190505b6305f5e1008310611a06576305f5e10083816119fc576119fb6130dd565b5b0492506008810190505b6127108310611a2b576127108381611a2157611a206130dd565b5b0492506004810190505b60648310611a4e5760648381611a4457611a436130dd565b5b0492506002810190505b600a8310611a5d576001810190505b80915050919050565b6001811115611b8657600073ffffffffffffffffffffffffffffffffffffffff168473ffffffffffffffffffffffffffffffffffffffff1614611afa5780600360008673ffffffffffffffffffffffffffffffffffffffff1673ffffffffffffffffffffffffffffffffffffffff1681526020019081526020016000206000828254611af291906132b0565b925050819055505b600073ffffffffffffffffffffffffffffffffffffffff168373ffffffffffffffffffffffffffffffffffffffff1614611b855780600360008573ffffffffffffffffffffffffffffffffffffffff1673ffffffffffffffffffffffffffffffffffffffff1681526020019081526020016000206000828254611b7d91906132e4565b925050819055505b5b50505050565b6008805490506009600083815260200190815260200160002081905550600881908060018154018082558091505060019003906000526020600020016000909190919091505550565b60006001611be2846108b4565b611bec91906132b0565b9050600060076000848152602001908152602001600020549050818114611cd1576000600660008673ffffffffffffffffffffffffffffffffffffffff1673ffffffffffffffffffffffffffffffffffffffff168152602001908152602001600020600084815260200190815260200160002054905080600660008773ffffffffffffffffffffffffffffffffffffffff1673ffffffffffffffffffffffffffffffffffffffff168152602001908152602001600020600084815260200190815260200160002081905550816007600083815260200190815260200160002081905550505b6007600084815260200190815260200160002060009055600660008573ffffffffffffffffffffffffffffffffffffffff1673ffffffffffffffffffffffffffffffffffffffff16815260200190815260200160002060008381526020019081526020016000206000905550505050565b60006001600880549050611d5691906132b0565b9050600060096000848152602001908152602001600020549050600060088381548110611d8657611d85612d2e565b5b906000526020600020015490508060088381548110611da857611da7612d2e565b5b906000526020600020018190555081600960008381526020019081526020016000208190555060096000858152602001908152602001600020600090556008805480611df757611df6613318565b5b6001900381819060005260206000200160009055905550505050565b6000611e1e836108b4565b905081600660008573ffffffffffffffffffffffffffffffffffffffff1673ffffffffffffffffffffffffffffffffffffffff168152602001908152602001600020600083815260200190815260200160002081905550806007600084815260200190815260200160002081905550505050565b600073ffffffffffffffffffffffffffffffffffffffff168273ffffffffffffffffffffffffffffffffffffffff1603611f01576040517f08c379a0000000000000000000000000000000000000000000000000000000008152600401611ef890613393565b60405180910390fd5b611f0a8161158c565b15611f4a576040517f08c379a0000000000000000000000000000000000000000000000000000000008152600401611f41906133ff565b60405180910390fd5b611f586000838360016115cd565b611f618161158c565b15611fa1576040517f08c379a0000000000000000000000000000000000000000000000000000000008152600401611f98906133ff565b60405180910390fd5b6001600360008473ffffffffffffffffffffffffffffffffffffffff1673ffffffffffffffffffffffffffffffffffffffff16815260200190815260200160002060008282540192505081905550816002600083815260200190815260200160002060006101000a81548173ffffffffffffffffffffffffffffffffffffffff021916908373ffffffffffffffffffffffffffffffffffffffff160217905550808273ffffffffffffffffffffffffffffffffffffffff16600073ffffffffffffffffffffffffffffffffffffffff167fddf252ad1be2c89b69c2b068fc378daa952ba7f163c4a11628f55a4df523b3ef60405160405180910390a46120ab60008383600161172b565b5050565b6000808273ffffffffffffffffffffffffffffffffffffffff163b119050919050565b6000604051905090565b600080fd5b600080fd5b60007fffffffff0000000000000000000000000000000000000000000000000000000082169050919050565b61211b816120e6565b811461212657600080fd5b50565b60008135905061213881612112565b92915050565b600060208284031215612154576121536120dc565b5b600061216284828501612129565b91505092915050565b60008115159050919050565b6121808161216b565b82525050565b600060208201905061219b6000830184612177565b92915050565b600081519050919050565b600082825260208201905092915050565b60005b838110156121db5780820151818401526020810190506121c0565b60008484015250505050565b6000601f19601f8301169050919050565b6000612203826121a1565b61220d81856121ac565b935061221d8185602086016121bd565b612226816121e7565b840191505092915050565b6000602082019050818103600083015261224b81846121f8565b905092915050565b6000819050919050565b61226681612253565b811461227157600080fd5b50565b6000813590506122838161225d565b92915050565b60006020828403121561229f5761229e6120dc565b5b60006122ad84828501612274565b91505092915050565b600073ffffffffffffffffffffffffffffffffffffffff82169050919050565b60006122e1826122b6565b9050919050565b6122f1816122d6565b82525050565b600060208201905061230c60008301846122e8565b92915050565b61231b816122d6565b811461232657600080fd5b50565b60008135905061233881612312565b92915050565b60008060408385031215612355576123546120dc565b5b600061236385828601612329565b925050602061237485828601612274565b9150509250929050565b61238781612253565b82525050565b60006020820190506123a2600083018461237e565b92915050565b6000806000606084860312156123c1576123c06120dc565b5b60006123cf86828701612329565b93505060206123e086828701612329565b92505060406123f186828701612274565b9150509250925092565b600080fd5b600080fd5b7f4e487b7100000000000000000000000000000000000000000000000000000000600052604160045260246000fd5b61243d826121e7565b810181811067ffffffffffffffff8211171561245c5761245b612405565b5b80604052505050565b600061246f6120d2565b905061247b8282612434565b919050565b600067ffffffffffffffff82111561249b5761249a612405565b5b6124a4826121e7565b9050602081019050919050565b82818337600083830152505050565b60006124d36124ce84612480565b612465565b9050828152602081018484840111156124ef576124ee612400565b5b6124fa8482856124b1565b509392505050565b600082601f830112612517576125166123fb565b5b81356125278482602086016124c0565b91505092915050565b600060208284031215612546576125456120dc565b5b600082013567ffffffffffffffff811115612564576125636120e1565b5b61257084828501612502565b91505092915050565b60006020828403121561258f5761258e6120dc565b5b600061259d84828501612329565b91505092915050565b6125af8161216b565b81146125ba57600080fd5b50565b6000813590506125cc816125a6565b92915050565b600080604083850312156125e9576125e86120dc565b5b60006125f785828601612329565b9250506020612608858286016125bd565b9150509250929050565b600067ffffffffffffffff82111561262d5761262c612405565b5b612636826121e7565b9050602081019050919050565b600061265661265184612612565b612465565b90508281526020810184848401111561267257612671612400565b5b61267d8482856124b1565b509392505050565b600082601f83011261269a576126996123fb565b5b81356126aa848260208601612643565b91505092915050565b600080600080608085870312156126cd576126cc6120dc565b5b60006126db87828801612329565b94505060206126ec87828801612329565b93505060406126fd87828801612274565b925050606085013567ffffffffffffffff81111561271e5761271d6120e1565b5b61272a87828801612685565b91505092959194509250565b6000806040838503121561274d5761274c6120dc565b5b600061275b85828601612329565b925050602061276c85828601612329565b9150509250929050565b7f4e487b7100000000000000000000000000000000000000000000000000000000600052602260045260246000fd5b600060028204905060018216806127bd57607f821691505b6020821081036127d0576127cf612776565b5b50919050565b7f4552433732313a20617070726f76616c20746f2063757272656e74206f776e6560008201527f7200000000000000000000000000000000000000000000000000000000000000602082015250565b60006128326021836121ac565b915061283d826127d6565b604082019050919050565b6000602082019050818103600083015261286181612825565b9050919050565b7f4552433732313a20617070726f76652063616c6c6572206973206e6f7420746f60008201527f6b656e206f776e6572206f7220617070726f76656420666f7220616c6c000000602082015250565b60006128c4603d836121ac565b91506128cf82612868565b604082019050919050565b600060208201905081810360008301526128f3816128b7565b9050919050565b7f4552433732313a2063616c6c6572206973206e6f7420746f6b656e206f776e6560008201527f72206f7220617070726f76656400000000000000000000000000000000000000602082015250565b6000612956602d836121ac565b9150612961826128fa565b604082019050919050565b6000602082019050818103600083015261298581612949565b9050919050565b7f455243373231456e756d657261626c653a206f776e657220696e646578206f7560008201527f74206f6620626f756e6473000000000000000000000000000000000000000000602082015250565b60006129e8602b836121ac565b91506129f38261298c565b604082019050919050565b60006020820190508181036000830152612a17816129db565b9050919050565b60008190508160005260206000209050919050565b60006020601f8301049050919050565b600082821b905092915050565b600060088302612a807fffffffffffffffffffffffffffffffffffffffffffffffffffffffffffffffff82612a43565b612a8a8683612a43565b95508019841693508086168417925050509392505050565b6000819050919050565b6000612ac7612ac2612abd84612253565b612aa2565b612253565b9050919050565b6000819050919050565b612ae183612aac565b612af5612aed82612ace565b848454612a50565b825550505050565b600090565b612b0a612afd565b612b15818484612ad8565b505050565b5b81811015612b3957612b2e600082612b02565b600181019050612b1b565b5050565b601f821115612b7e57612b4f81612a1e565b612b5884612a33565b81016020851015612b67578190505b612b7b612b7385612a33565b830182612b1a565b50505b505050565b600082821c905092915050565b6000612ba160001984600802612b83565b1980831691505092915050565b6000612bba8383612b90565b9150826002028217905092915050565b612bd3826121a1565b67ffffffffffffffff811115612bec57612beb612405565b5b612bf682546127a5565b612c01828285612b3d565b600060209050601f831160018114612c345760008415612c22578287015190505b612c2c8582612bae565b865550612c94565b601f198416612c4286612a1e565b60005b82811015612c6a57848901518255600182019150602085019450602081019050612c45565b86831015612c875784890151612c83601f891682612b90565b8355505b6001600288020188555050505b505050505050565b7f455243373231456e756d657261626c653a20676c6f62616c20696e646578206f60008201527f7574206f6620626f756e64730000000000000000000000000000000000000000602082015250565b6000612cf8602c836121ac565b9150612d0382612c9c565b604082019050919050565b60006020820190508181036000830152612d2781612ceb565b9050919050565b7f4e487b7100000000000000000000000000000000000000000000000000000000600052603260045260246000fd5b7f4552433732313a20696e76616c696420746f6b656e2049440000000000000000600082015250565b6000612d936018836121ac565b9150612d9e82612d5d565b602082019050919050565b60006020820190508181036000830152612dc281612d86565b9050919050565b7f4552433732313a2061646472657373207a65726f206973206e6f74206120766160008201527f6c6964206f776e65720000000000000000000000000000000000000000000000602082015250565b6000612e256029836121ac565b9150612e3082612dc9565b604082019050919050565b60006020820190508181036000830152612e5481612e18565b9050919050565b600081905092915050565b6000612e71826121a1565b612e7b8185612e5b565b9350612e8b8185602086016121bd565b80840191505092915050565b6000612ea38285612e66565b9150612eaf8284612e66565b91508190509392505050565b7f4552433732313a207472616e736665722066726f6d20696e636f72726563742060008201527f6f776e6572000000000000000000000000000000000000000000000000000000602082015250565b6000612f176025836121ac565b9150612f2282612ebb565b604082019050919050565b60006020820190508181036000830152612f4681612f0a565b9050919050565b7f4552433732313a207472616e7366657220746f20746865207a65726f2061646460008201527f7265737300000000000000000000000000000000000000000000000000000000602082015250565b6000612fa96024836121ac565b9150612fb482612f4d565b604082019050919050565b60006020820190508181036000830152612fd881612f9c565b9050919050565b7f4552433732313a20617070726f766520746f2063616c6c657200000000000000600082015250565b60006130156019836121ac565b915061302082612fdf565b602082019050919050565b6000602082019050818103600083015261304481613008565b9050919050565b7f4552433732313a207472616e7366657220746f206e6f6e20455243373231526560008201527f63656976657220696d706c656d656e7465720000000000000000000000000000602082015250565b60006130a76032836121ac565b91506130b28261304b565b604082019050919050565b600060208201905081810360008301526130d68161309a565b9050919050565b7f4e487b7100000000000000000000000000000000000000000000000000000000600052601260045260246000fd5b7f455243373231456e756d657261626c653a20636f6e736563757469766520747260008201527f616e7366657273206e6f7420737570706f727465640000000000000000000000602082015250565b60006131686035836121ac565b91506131738261310c565b604082019050919050565b600060208201905081810360008301526131978161315b565b9050919050565b600081519050919050565b600082825260208201905092915050565b60006131c58261319e565b6131cf81856131a9565b93506131df8185602086016121bd565b6131e8816121e7565b840191505092915050565b600060808201905061320860008301876122e8565b61321560208301866122e8565b613222604083018561237e565b818103606083015261323481846131ba565b905095945050505050565b60008151905061324e81612112565b92915050565b60006020828403121561326a576132696120dc565b5b60006132788482850161323f565b91505092915050565b7f4e487b7100000000000000000000000000000000000000000000000000000000600052601160045260246000fd5b60006132bb82612253565b91506132c683612253565b92508282039050818111156132de576132dd613281565b5b92915050565b60006132ef82612253565b91506132fa83612253565b925082820190508082111561331257613311613281565b5b92915050565b7f4e487b7100000000000000000000000000000000000000000000000000000000600052603160045260246000fd5b7f4552433732313a206d696e7420746f20746865207a65726f2061646472657373600082015250565b600061337d6020836121ac565b915061338882613347565b602082019050919050565b600060208201905081810360008301526133ac81613370565b9050919050565b7f4552433732313a20746f6b656e20616c7265616479206d696e74656400000000600082015250565b60006133e9601c836121ac565b91506133f4826133b3565b602082019050919050565b60006020820190508181036000830152613418816133dc565b905091905056fea2646970667358221220e9f4cc8fc44cc891a6e3cfa9ab60bed0bc50bd19303d62177ff127554d23bba964736f6c63430008110033",
  "linkReferences": {},
  "deployedLinkReferences": {}
}