{
  "_format": "hh-sol-artifact-1",
  "contractName": "NFT",
  "sourceName": "contracts/createNFT.sol",
  "abi": [
    {
      "inputs": [],
      "stateMutability": "nonpayable",
      "type": "constructor"
    },
    {
      "anonymous": false,
      "inputs": [
        {
          "indexed": true,
          "internalType": "address",
          "name": "owner",
          "type": "address"
        },
        {
          "indexed": true,
          "internalType": "address",
          "name": "approved",
          "type": "address"
        },
        {
          "indexed": true,
          "internalType": "uint256",
          "name": "tokenId",
          "type": "uint256"
        }
      ],
      "name": "Approval",
      "type": "event"
    },
    {
      "anonymous": false,
      "inputs": [
        {
          "indexed": true,
          "internalType": "address",
          "name": "owner",
          "type": "address"
        },
        {
          "indexed": true,
          "internalType": "address",
          "name": "operator",
          "type": "address"
        },
        {
          "indexed": false,
          "internalType": "bool",
          "name": "approved",
          "type": "bool"
        }
      ],
      "name": "ApprovalForAll",
      "type": "event"
    },
    {
      "anonymous": false,
      "inputs": [
        {
          "indexed": true,
          "internalType": "address",
          "name": "from",
          "type": "address"
        },
        {
          "indexed": true,
          "internalType": "address",
          "name": "to",
          "type": "address"
        },
        {
          "indexed": true,
          "internalType": "uint256",
          "name": "tokenId",
          "type": "uint256"
        }
      ],
      "name": "Transfer",
      "type": "event"
    },
    {
      "inputs": [
        {
          "internalType": "address",
          "name": "to",
          "type": "address"
        },
        {
          "internalType": "uint256",
          "name": "tokenId",
          "type": "uint256"
        }
      ],
      "name": "approve",
      "outputs": [],
      "stateMutability": "nonpayable",
      "type": "function"
    },
    {
      "inputs": [
        {
          "internalType": "address",
          "name": "owner",
          "type": "address"
        }
      ],
      "name": "balanceOf",
      "outputs": [
        {
          "internalType": "uint256",
          "name": "",
          "type": "uint256"
        }
      ],
      "stateMutability": "view",
      "type": "function"
    },
    {
      "inputs": [],
      "name": "baseTokenURI",
      "outputs": [
        {
          "internalType": "string",
          "name": "",
          "type": "string"
        }
      ],
      "stateMutability": "view",
      "type": "function"
    },
    {
      "inputs": [
        {
          "internalType": "uint256",
          "name": "tokenId",
          "type": "uint256"
        }
      ],
      "name": "getApproved",
      "outputs": [
        {
          "internalType": "address",
          "name": "",
          "type": "address"
        }
      ],
      "stateMutability": "view",
      "type": "function"
    },
    {
      "inputs": [
        {
          "internalType": "address",
          "name": "owner",
          "type": "address"
        },
        {
          "internalType": "address",
          "name": "operator",
          "type": "address"
        }
      ],
      "name": "isApprovedForAll",
      "outputs": [
        {
          "internalType": "bool",
          "name": "",
          "type": "bool"
        }
      ],
      "stateMutability": "view",
      "type": "function"
    },
    {
      "inputs": [
        {
          "internalType": "address",
          "name": "recipient",
          "type": "address"
        }
      ],
      "name": "mintTo",
      "outputs": [
        {
          "internalType": "uint256",
          "name": "",
          "type": "uint256"
        }
      ],
      "stateMutability": "nonpayable",
      "type": "function"
    },
    {
      "inputs": [],
      "name": "name",
      "outputs": [
        {
          "internalType": "string",
          "name": "",
          "type": "string"
        }
      ],
      "stateMutability": "view",
      "type": "function"
    },
    {
      "inputs": [
        {
          "internalType": "uint256",
          "name": "tokenId",
          "type": "uint256"
        }
      ],
      "name": "ownerOf",
      "outputs": [
        {
          "internalType": "address",
          "name": "",
          "type": "address"
        }
      ],
      "stateMutability": "view",
      "type": "function"
    },
    {
      "inputs": [
        {
          "internalType": "address",
          "name": "from",
          "type": "address"
        },
        {
          "internalType": "address",
          "name": "to",
          "type": "address"
        },
        {
          "internalType": "uint256",
          "name": "tokenId",
          "type": "uint256"
        }
      ],
      "name": "safeTransferFrom",
      "outputs": [],
      "stateMutability": "nonpayable",
      "type": "function"
    },
    {
      "inputs": [
        {
          "internalType": "address",
          "name": "from",
          "type": "address"
        },
        {
          "internalType": "address",
          "name": "to",
          "type": "address"
        },
        {
          "internalType": "uint256",
          "name": "tokenId",
          "type": "uint256"
        },
        {
          "internalType": "bytes",
          "name": "data",
          "type": "bytes"
        }
      ],
      "name": "safeTransferFrom",
      "outputs": [],
      "stateMutability": "nonpayable",
      "type": "function"
    },
    {
      "inputs": [
        {
          "internalType": "address",
          "name": "operator",
          "type": "address"
        },
        {
          "internalType": "bool",
          "name": "approved",
          "type": "bool"
        }
      ],
      "name": "setApprovalForAll",
      "outputs": [],
      "stateMutability": "nonpayable",
      "type": "function"
    },
    {
      "inputs": [
        {
          "internalType": "string",
          "name": "_baseTokenURI",
          "type": "string"
        }
      ],
      "name": "setBaseTokenURI",
      "outputs": [],
      "stateMutability": "nonpayable",
      "type": "function"
    },
    {
      "inputs": [
        {
          "internalType": "bytes4",
          "name": "interfaceId",
          "type": "bytes4"
        }
      ],
      "name": "supportsInterface",
      "outputs": [
        {
          "internalType": "bool",
          "name": "",
          "type": "bool"
        }
      ],
      "stateMutability": "view",
      "type": "function"
    },
    {
      "inputs": [],
      "name": "symbol",
      "outputs": [
        {
          "internalType": "string",
          "name": "",
          "type": "string"
        }
      ],
      "stateMutability": "view",
      "type": "function"
    },
    {
      "inputs": [
        {
          "internalType": "uint256",
          "name": "tokenId",
          "type": "uint256"
        }
      ],
      "name": "tokenURI",
      "outputs": [
        {
          "internalType": "string",
          "name": "",
          "type": "string"
        }
      ],
      "stateMutability": "view",
      "type": "function"
    },
    {
      "inputs": [
        {
          "internalType": "address",
          "name": "from",
          "type": "address"
        },
        {
          "internalType": "address",
          "name": "to",
          "type": "address"
        },
        {
          "internalType": "uint256",
          "name": "tokenId",
          "type": "uint256"
        }
      ],
      "name": "transferFrom",
      "outputs": [],
      "stateMutability": "nonpayable",
      "type": "function"
    }
  ],
  "bytecode": "0x60806040523480156200001157600080fd5b506040518060400160405280600a81526020017f4e465444697050726f6a000000000000000000000000000000000000000000008152506040518060400160405280600381526020017f4e4654000000000000000000000000000000000000000000000000000000000081525081600090816200008f919062000345565b508060019081620000a1919062000345565b5050506040518060200160405280600081525060079081620000c4919062000345565b506200042c565b600081519050919050565b7f4e487b7100000000000000000000000000000000000000000000000000000000600052604160045260246000fd5b7f4e487b7100000000000000000000000000000000000000000000000000000000600052602260045260246000fd5b600060028204905060018216806200014d57607f821691505b60208210810362000163576200016262000105565b5b50919050565b60008190508160005260206000209050919050565b60006020601f8301049050919050565b600082821b905092915050565b600060088302620001cd7fffffffffffffffffffffffffffffffffffffffffffffffffffffffffffffffff826200018e565b620001d986836200018e565b95508019841693508086168417925050509392505050565b6000819050919050565b6000819050919050565b600062000226620002206200021a84620001f1565b620001fb565b620001f1565b9050919050565b6000819050919050565b620002428362000205565b6200025a62000251826200022d565b8484546200019b565b825550505050565b600090565b6200027162000262565b6200027e81848462000237565b505050565b5b81811015620002a6576200029a60008262000267565b60018101905062000284565b5050565b601f821115620002f557620002bf8162000169565b620002ca846200017e565b81016020851015620002da578190505b620002f2620002e9856200017e565b83018262000283565b50505b505050565b600082821c905092915050565b60006200031a60001984600802620002fa565b1980831691505092915050565b600062000335838362000307565b9150826002028217905092915050565b6200035082620000cb565b67ffffffffffffffff8111156200036c576200036b620000d6565b5b62000378825462000134565b62000385828285620002aa565b600060209050601f831160018114620003bd5760008415620003a8578287015190505b620003b4858262000327565b86555062000424565b601f198416620003cd8662000169565b60005b82811015620003f757848901518255600182019150602085019450602081019050620003d0565b8683101562000417578489015162000413601f89168262000307565b8355505b6001600288020188555050505b505050505050565b612bb5806200043c6000396000f3fe608060405234801561001057600080fd5b50600436106101005760003560e01c806370a0823111610097578063b88d4fde11610066578063b88d4fde146102bd578063c87b56dd146102d9578063d547cfb714610309578063e985e9c51461032757610100565b806370a0823114610223578063755edd171461025357806395d89b4114610283578063a22cb465146102a157610100565b806323b872dd116100d357806323b872dd1461019f57806330176e13146101bb57806342842e0e146101d75780636352211e146101f357610100565b806301ffc9a71461010557806306fdde0314610135578063081812fc14610153578063095ea7b314610183575b600080fd5b61011f600480360381019061011a9190611ab2565b610357565b60405161012c9190611afa565b60405180910390f35b61013d610439565b60405161014a9190611ba5565b60405180910390f35b61016d60048036038101906101689190611bfd565b6104cb565b60405161017a9190611c6b565b60405180910390f35b61019d60048036038101906101989190611cb2565b610511565b005b6101b960048036038101906101b49190611cf2565b610628565b005b6101d560048036038101906101d09190611e7a565b610688565b005b6101f160048036038101906101ec9190611cf2565b61069b565b005b61020d60048036038101906102089190611bfd565b6106bb565b60405161021a9190611c6b565b60405180910390f35b61023d60048036038101906102389190611ec3565b610741565b60405161024a9190611eff565b60405180910390f35b61026d60048036038101906102689190611ec3565b6107f8565b60405161027a9190611eff565b60405180910390f35b61028b610825565b6040516102989190611ba5565b60405180910390f35b6102bb60048036038101906102b69190611f46565b6108b7565b005b6102d760048036038101906102d29190612027565b6108cd565b005b6102f360048036038101906102ee9190611bfd565b61092f565b6040516103009190611ba5565b60405180910390f35b610311610997565b60405161031e9190611ba5565b60405180910390f35b610341600480360381019061033c91906120aa565b610a25565b60405161034e9190611afa565b60405180910390f35b60007f80ac58cd000000000000000000000000000000000000000000000000000000007bffffffffffffffffffffffffffffffffffffffffffffffffffffffff1916827bffffffffffffffffffffffffffffffffffffffffffffffffffffffff1916148061042257507f5b5e139f000000000000000000000000000000000000000000000000000000007bffffffffffffffffffffffffffffffffffffffffffffffffffffffff1916827bffffffffffffffffffffffffffffffffffffffffffffffffffffffff1916145b80610432575061043182610ab9565b5b9050919050565b60606000805461044890612119565b80601f016020809104026020016040519081016040528092919081815260200182805461047490612119565b80156104c15780601f10610496576101008083540402835291602001916104c1565b820191906000526020600020905b8154815290600101906020018083116104a457829003601f168201915b5050505050905090565b60006104d682610b23565b6004600083815260200190815260200160002060009054906101000a900473ffffffffffffffffffffffffffffffffffffffff169050919050565b600061051c826106bb565b90508073ffffffffffffffffffffffffffffffffffffffff168373ffffffffffffffffffffffffffffffffffffffff160361058c576040517f08c379a0000000000000000000000000000000000000000000000000000000008152600401610583906121bc565b60405180910390fd5b8073ffffffffffffffffffffffffffffffffffffffff166105ab610b6e565b73ffffffffffffffffffffffffffffffffffffffff1614806105da57506105d9816105d4610b6e565b610a25565b5b610619576040517f08c379a00000000000000000000000000000000000000000000000000000000081526004016106109061224e565b60405180910390fd5b6106238383610b76565b505050565b610639610633610b6e565b82610c2f565b610678576040517f08c379a000000000000000000000000000000000000000000000000000000000815260040161066f906122e0565b60405180910390fd5b610683838383610cc4565b505050565b806007908161069791906124ac565b5050565b6106b6838383604051806020016040528060008152506108cd565b505050565b6000806106c783610fbd565b9050600073ffffffffffffffffffffffffffffffffffffffff168173ffffffffffffffffffffffffffffffffffffffff1603610738576040517f08c379a000000000000000000000000000000000000000000000000000000000815260040161072f906125ca565b60405180910390fd5b80915050919050565b60008073ffffffffffffffffffffffffffffffffffffffff168273ffffffffffffffffffffffffffffffffffffffff16036107b1576040517f08c379a00000000000000000000000000000000000000000000000000000000081526004016107a89061265c565b60405180910390fd5b600360008373ffffffffffffffffffffffffffffffffffffffff1673ffffffffffffffffffffffffffffffffffffffff168152602001908152602001600020549050919050565b60006108046006610ffa565b60006108106006611010565b905061081c838261101e565b80915050919050565b60606001805461083490612119565b80601f016020809104026020016040519081016040528092919081815260200182805461086090612119565b80156108ad5780601f10610882576101008083540402835291602001916108ad565b820191906000526020600020905b81548152906001019060200180831161089057829003601f168201915b5050505050905090565b6108c96108c2610b6e565b838361103c565b5050565b6108de6108d8610b6e565b83610c2f565b61091d576040517f08c379a0000000000000000000000000000000000000000000000000000000008152600401610914906122e0565b60405180910390fd5b610929848484846111a8565b50505050565b606061093a82610b23565b6000610944611204565b90506000815111610964576040518060200160405280600081525061098f565b8061096e84611296565b60405160200161097f9291906126b8565b6040516020818303038152906040525b915050919050565b600780546109a490612119565b80601f01602080910402602001604051908101604052809291908181526020018280546109d090612119565b8015610a1d5780601f106109f257610100808354040283529160200191610a1d565b820191906000526020600020905b815481529060010190602001808311610a0057829003601f168201915b505050505081565b6000600560008473ffffffffffffffffffffffffffffffffffffffff1673ffffffffffffffffffffffffffffffffffffffff16815260200190815260200160002060008373ffffffffffffffffffffffffffffffffffffffff1673ffffffffffffffffffffffffffffffffffffffff16815260200190815260200160002060009054906101000a900460ff16905092915050565b60007f01ffc9a7000000000000000000000000000000000000000000000000000000007bffffffffffffffffffffffffffffffffffffffffffffffffffffffff1916827bffffffffffffffffffffffffffffffffffffffffffffffffffffffff1916149050919050565b610b2c81611364565b610b6b576040517f08c379a0000000000000000000000000000000000000000000000000000000008152600401610b62906125ca565b60405180910390fd5b50565b600033905090565b816004600083815260200190815260200160002060006101000a81548173ffffffffffffffffffffffffffffffffffffffff021916908373ffffffffffffffffffffffffffffffffffffffff160217905550808273ffffffffffffffffffffffffffffffffffffffff16610be9836106bb565b73ffffffffffffffffffffffffffffffffffffffff167f8c5be1e5ebec7d5bd14f71427d1e84f3dd0314c0f7b2291e5b200ac8c7c3b92560405160405180910390a45050565b600080610c3b836106bb565b90508073ffffffffffffffffffffffffffffffffffffffff168473ffffffffffffffffffffffffffffffffffffffff161480610c7d5750610c7c8185610a25565b5b80610cbb57508373ffffffffffffffffffffffffffffffffffffffff16610ca3846104cb565b73ffffffffffffffffffffffffffffffffffffffff16145b91505092915050565b8273ffffffffffffffffffffffffffffffffffffffff16610ce4826106bb565b73ffffffffffffffffffffffffffffffffffffffff1614610d3a576040517f08c379a0000000000000000000000000000000000000000000000000000000008152600401610d319061274e565b60405180910390fd5b600073ffffffffffffffffffffffffffffffffffffffff168273ffffffffffffffffffffffffffffffffffffffff1603610da9576040517f08c379a0000000000000000000000000000000000000000000000000000000008152600401610da0906127e0565b60405180910390fd5b610db683838360016113a5565b8273ffffffffffffffffffffffffffffffffffffffff16610dd6826106bb565b73ffffffffffffffffffffffffffffffffffffffff1614610e2c576040517f08c379a0000000000000000000000000000000000000000000000000000000008152600401610e239061274e565b60405180910390fd5b6004600082815260200190815260200160002060006101000a81549073ffffffffffffffffffffffffffffffffffffffff02191690556001600360008573ffffffffffffffffffffffffffffffffffffffff1673ffffffffffffffffffffffffffffffffffffffff168152602001908152602001600020600082825403925050819055506001600360008473ffffffffffffffffffffffffffffffffffffffff1673ffffffffffffffffffffffffffffffffffffffff16815260200190815260200160002060008282540192505081905550816002600083815260200190815260200160002060006101000a81548173ffffffffffffffffffffffffffffffffffffffff021916908373ffffffffffffffffffffffffffffffffffffffff160217905550808273ffffffffffffffffffffffffffffffffffffffff168473ffffffffffffffffffffffffffffffffffffffff167fddf252ad1be2c89b69c2b068fc378daa952ba7f163c4a11628f55a4df523b3ef60405160405180910390a4610fb883838360016114cb565b505050565b60006002600083815260200190815260200160002060009054906101000a900473ffffffffffffffffffffffffffffffffffffffff169050919050565b6001816000016000828254019250508190555050565b600081600001549050919050565b6110388282604051806020016040528060008152506114d1565b5050565b8173ffffffffffffffffffffffffffffffffffffffff168373ffffffffffffffffffffffffffffffffffffffff16036110aa576040517f08c379a00000000000000000000000000000000000000000000000000000000081526004016110a19061284c565b60405180910390fd5b80600560008573ffffffffffffffffffffffffffffffffffffffff1673ffffffffffffffffffffffffffffffffffffffff16815260200190815260200160002060008473ffffffffffffffffffffffffffffffffffffffff1673ffffffffffffffffffffffffffffffffffffffff16815260200190815260200160002060006101000a81548160ff0219169083151502179055508173ffffffffffffffffffffffffffffffffffffffff168373ffffffffffffffffffffffffffffffffffffffff167f17307eab39ab6107e8899845ad3d59bd9653f200f220920489ca2b5937696c318360405161119b9190611afa565b60405180910390a3505050565b6111b3848484610cc4565b6111bf8484848461152c565b6111fe576040517f08c379a00000000000000000000000000000000000000000000000000000000081526004016111f5906128de565b60405180910390fd5b50505050565b60606007805461121390612119565b80601f016020809104026020016040519081016040528092919081815260200182805461123f90612119565b801561128c5780601f106112615761010080835404028352916020019161128c565b820191906000526020600020905b81548152906001019060200180831161126f57829003601f168201915b5050505050905090565b6060600060016112a5846116b3565b01905060008167ffffffffffffffff8111156112c4576112c3611d4f565b5b6040519080825280601f01601f1916602001820160405280156112f65781602001600182028036833780820191505090505b509050600082602001820190505b600115611359578080600190039150507f3031323334353637383961626364656600000000000000000000000000000000600a86061a8153600a858161134d5761134c6128fe565b5b04945060008503611304575b819350505050919050565b60008073ffffffffffffffffffffffffffffffffffffffff1661138683610fbd565b73ffffffffffffffffffffffffffffffffffffffff1614159050919050565b60018111156114c557600073ffffffffffffffffffffffffffffffffffffffff168473ffffffffffffffffffffffffffffffffffffffff16146114395780600360008673ffffffffffffffffffffffffffffffffffffffff1673ffffffffffffffffffffffffffffffffffffffff1681526020019081526020016000206000828254611431919061295c565b925050819055505b600073ffffffffffffffffffffffffffffffffffffffff168373ffffffffffffffffffffffffffffffffffffffff16146114c45780600360008573ffffffffffffffffffffffffffffffffffffffff1673ffffffffffffffffffffffffffffffffffffffff16815260200190815260200160002060008282546114bc9190612990565b925050819055505b5b50505050565b50505050565b6114db8383611806565b6114e8600084848461152c565b611527576040517f08c379a000000000000000000000000000000000000000000000000000000000815260040161151e906128de565b60405180910390fd5b505050565b600061154d8473ffffffffffffffffffffffffffffffffffffffff16611a23565b156116a6578373ffffffffffffffffffffffffffffffffffffffff1663150b7a02611576610b6e565b8786866040518563ffffffff1660e01b81526004016115989493929190612a19565b6020604051808303816000875af19250505080156115d457506040513d601f19601f820116820180604052508101906115d19190612a7a565b60015b611656573d8060008114611604576040519150601f19603f3d011682016040523d82523d6000602084013e611609565b606091505b50600081510361164e576040517f08c379a0000000000000000000000000000000000000000000000000000000008152600401611645906128de565b60405180910390fd5b805181602001fd5b63150b7a0260e01b7bffffffffffffffffffffffffffffffffffffffffffffffffffffffff1916817bffffffffffffffffffffffffffffffffffffffffffffffffffffffff1916149150506116ab565b600190505b949350505050565b600080600090507a184f03e93ff9f4daa797ed6e38ed64bf6a1f0100000000000000008310611711577a184f03e93ff9f4daa797ed6e38ed64bf6a1f0100000000000000008381611707576117066128fe565b5b0492506040810190505b6d04ee2d6d415b85acef8100000000831061174e576d04ee2d6d415b85acef81000000008381611744576117436128fe565b5b0492506020810190505b662386f26fc10000831061177d57662386f26fc100008381611773576117726128fe565b5b0492506010810190505b6305f5e10083106117a6576305f5e100838161179c5761179b6128fe565b5b0492506008810190505b61271083106117cb5761271083816117c1576117c06128fe565b5b0492506004810190505b606483106117ee57606483816117e4576117e36128fe565b5b0492506002810190505b600a83106117fd576001810190505b80915050919050565b600073ffffffffffffffffffffffffffffffffffffffff168273ffffffffffffffffffffffffffffffffffffffff1603611875576040517f08c379a000000000000000000000000000000000000000000000000000000000815260040161186c90612af3565b60405180910390fd5b61187e81611364565b156118be576040517f08c379a00000000000000000000000000000000000000000000000000000000081526004016118b590612b5f565b60405180910390fd5b6118cc6000838360016113a5565b6118d581611364565b15611915576040517f08c379a000000000000000000000000000000000000000000000000000000000815260040161190c90612b5f565b60405180910390fd5b6001600360008473ffffffffffffffffffffffffffffffffffffffff1673ffffffffffffffffffffffffffffffffffffffff16815260200190815260200160002060008282540192505081905550816002600083815260200190815260200160002060006101000a81548173ffffffffffffffffffffffffffffffffffffffff021916908373ffffffffffffffffffffffffffffffffffffffff160217905550808273ffffffffffffffffffffffffffffffffffffffff16600073ffffffffffffffffffffffffffffffffffffffff167fddf252ad1be2c89b69c2b068fc378daa952ba7f163c4a11628f55a4df523b3ef60405160405180910390a4611a1f6000838360016114cb565b5050565b6000808273ffffffffffffffffffffffffffffffffffffffff163b119050919050565b6000604051905090565b600080fd5b600080fd5b60007fffffffff0000000000000000000000000000000000000000000000000000000082169050919050565b611a8f81611a5a565b8114611a9a57600080fd5b50565b600081359050611aac81611a86565b92915050565b600060208284031215611ac857611ac7611a50565b5b6000611ad684828501611a9d565b91505092915050565b60008115159050919050565b611af481611adf565b82525050565b6000602082019050611b0f6000830184611aeb565b92915050565b600081519050919050565b600082825260208201905092915050565b60005b83811015611b4f578082015181840152602081019050611b34565b60008484015250505050565b6000601f19601f8301169050919050565b6000611b7782611b15565b611b818185611b20565b9350611b91818560208601611b31565b611b9a81611b5b565b840191505092915050565b60006020820190508181036000830152611bbf8184611b6c565b905092915050565b6000819050919050565b611bda81611bc7565b8114611be557600080fd5b50565b600081359050611bf781611bd1565b92915050565b600060208284031215611c1357611c12611a50565b5b6000611c2184828501611be8565b91505092915050565b600073ffffffffffffffffffffffffffffffffffffffff82169050919050565b6000611c5582611c2a565b9050919050565b611c6581611c4a565b82525050565b6000602082019050611c806000830184611c5c565b92915050565b611c8f81611c4a565b8114611c9a57600080fd5b50565b600081359050611cac81611c86565b92915050565b60008060408385031215611cc957611cc8611a50565b5b6000611cd785828601611c9d565b9250506020611ce885828601611be8565b9150509250929050565b600080600060608486031215611d0b57611d0a611a50565b5b6000611d1986828701611c9d565b9350506020611d2a86828701611c9d565b9250506040611d3b86828701611be8565b9150509250925092565b600080fd5b600080fd5b7f4e487b7100000000000000000000000000000000000000000000000000000000600052604160045260246000fd5b611d8782611b5b565b810181811067ffffffffffffffff82111715611da657611da5611d4f565b5b80604052505050565b6000611db9611a46565b9050611dc58282611d7e565b919050565b600067ffffffffffffffff821115611de557611de4611d4f565b5b611dee82611b5b565b9050602081019050919050565b82818337600083830152505050565b6000611e1d611e1884611dca565b611daf565b905082815260208101848484011115611e3957611e38611d4a565b5b611e44848285611dfb565b509392505050565b600082601f830112611e6157611e60611d45565b5b8135611e71848260208601611e0a565b91505092915050565b600060208284031215611e9057611e8f611a50565b5b600082013567ffffffffffffffff811115611eae57611ead611a55565b5b611eba84828501611e4c565b91505092915050565b600060208284031215611ed957611ed8611a50565b5b6000611ee784828501611c9d565b91505092915050565b611ef981611bc7565b82525050565b6000602082019050611f146000830184611ef0565b92915050565b611f2381611adf565b8114611f2e57600080fd5b50565b600081359050611f4081611f1a565b92915050565b60008060408385031215611f5d57611f5c611a50565b5b6000611f6b85828601611c9d565b9250506020611f7c85828601611f31565b9150509250929050565b600067ffffffffffffffff821115611fa157611fa0611d4f565b5b611faa82611b5b565b9050602081019050919050565b6000611fca611fc584611f86565b611daf565b905082815260208101848484011115611fe657611fe5611d4a565b5b611ff1848285611dfb565b509392505050565b600082601f83011261200e5761200d611d45565b5b813561201e848260208601611fb7565b91505092915050565b6000806000806080858703121561204157612040611a50565b5b600061204f87828801611c9d565b945050602061206087828801611c9d565b935050604061207187828801611be8565b925050606085013567ffffffffffffffff81111561209257612091611a55565b5b61209e87828801611ff9565b91505092959194509250565b600080604083850312156120c1576120c0611a50565b5b60006120cf85828601611c9d565b92505060206120e085828601611c9d565b9150509250929050565b7f4e487b7100000000000000000000000000000000000000000000000000000000600052602260045260246000fd5b6000600282049050600182168061213157607f821691505b602082108103612144576121436120ea565b5b50919050565b7f4552433732313a20617070726f76616c20746f2063757272656e74206f776e6560008201527f7200000000000000000000000000000000000000000000000000000000000000602082015250565b60006121a6602183611b20565b91506121b18261214a565b604082019050919050565b600060208201905081810360008301526121d581612199565b9050919050565b7f4552433732313a20617070726f76652063616c6c6572206973206e6f7420746f60008201527f6b656e206f776e6572206f7220617070726f76656420666f7220616c6c000000602082015250565b6000612238603d83611b20565b9150612243826121dc565b604082019050919050565b600060208201905081810360008301526122678161222b565b9050919050565b7f4552433732313a2063616c6c6572206973206e6f7420746f6b656e206f776e6560008201527f72206f7220617070726f76656400000000000000000000000000000000000000602082015250565b60006122ca602d83611b20565b91506122d58261226e565b604082019050919050565b600060208201905081810360008301526122f9816122bd565b9050919050565b60008190508160005260206000209050919050565b60006020601f8301049050919050565b600082821b905092915050565b6000600883026123627fffffffffffffffffffffffffffffffffffffffffffffffffffffffffffffffff82612325565b61236c8683612325565b95508019841693508086168417925050509392505050565b6000819050919050565b60006123a96123a461239f84611bc7565b612384565b611bc7565b9050919050565b6000819050919050565b6123c38361238e565b6123d76123cf826123b0565b848454612332565b825550505050565b600090565b6123ec6123df565b6123f78184846123ba565b505050565b5b8181101561241b576124106000826123e4565b6001810190506123fd565b5050565b601f8211156124605761243181612300565b61243a84612315565b81016020851015612449578190505b61245d61245585612315565b8301826123fc565b50505b505050565b600082821c905092915050565b600061248360001984600802612465565b1980831691505092915050565b600061249c8383612472565b9150826002028217905092915050565b6124b582611b15565b67ffffffffffffffff8111156124ce576124cd611d4f565b5b6124d88254612119565b6124e382828561241f565b600060209050601f8311600181146125165760008415612504578287015190505b61250e8582612490565b865550612576565b601f19841661252486612300565b60005b8281101561254c57848901518255600182019150602085019450602081019050612527565b868310156125695784890151612565601f891682612472565b8355505b6001600288020188555050505b505050505050565b7f4552433732313a20696e76616c696420746f6b656e2049440000000000000000600082015250565b60006125b4601883611b20565b91506125bf8261257e565b602082019050919050565b600060208201905081810360008301526125e3816125a7565b9050919050565b7f4552433732313a2061646472657373207a65726f206973206e6f74206120766160008201527f6c6964206f776e65720000000000000000000000000000000000000000000000602082015250565b6000612646602983611b20565b9150612651826125ea565b604082019050919050565b6000602082019050818103600083015261267581612639565b9050919050565b600081905092915050565b600061269282611b15565b61269c818561267c565b93506126ac818560208601611b31565b80840191505092915050565b60006126c48285612687565b91506126d08284612687565b91508190509392505050565b7f4552433732313a207472616e736665722066726f6d20696e636f72726563742060008201527f6f776e6572000000000000000000000000000000000000000000000000000000602082015250565b6000612738602583611b20565b9150612743826126dc565b604082019050919050565b600060208201905081810360008301526127678161272b565b9050919050565b7f4552433732313a207472616e7366657220746f20746865207a65726f2061646460008201527f7265737300000000000000000000000000000000000000000000000000000000602082015250565b60006127ca602483611b20565b91506127d58261276e565b604082019050919050565b600060208201905081810360008301526127f9816127bd565b9050919050565b7f4552433732313a20617070726f766520746f2063616c6c657200000000000000600082015250565b6000612836601983611b20565b915061284182612800565b602082019050919050565b6000602082019050818103600083015261286581612829565b9050919050565b7f4552433732313a207472616e7366657220746f206e6f6e20455243373231526560008201527f63656976657220696d706c656d656e7465720000000000000000000000000000602082015250565b60006128c8603283611b20565b91506128d38261286c565b604082019050919050565b600060208201905081810360008301526128f7816128bb565b9050919050565b7f4e487b7100000000000000000000000000000000000000000000000000000000600052601260045260246000fd5b7f4e487b7100000000000000000000000000000000000000000000000000000000600052601160045260246000fd5b600061296782611bc7565b915061297283611bc7565b925082820390508181111561298a5761298961292d565b5b92915050565b600061299b82611bc7565b91506129a683611bc7565b92508282019050808211156129be576129bd61292d565b5b92915050565b600081519050919050565b600082825260208201905092915050565b60006129eb826129c4565b6129f581856129cf565b9350612a05818560208601611b31565b612a0e81611b5b565b840191505092915050565b6000608082019050612a2e6000830187611c5c565b612a3b6020830186611c5c565b612a486040830185611ef0565b8181036060830152612a5a81846129e0565b905095945050505050565b600081519050612a7481611a86565b92915050565b600060208284031215612a9057612a8f611a50565b5b6000612a9e84828501612a65565b91505092915050565b7f4552433732313a206d696e7420746f20746865207a65726f2061646472657373600082015250565b6000612add602083611b20565b9150612ae882612aa7565b602082019050919050565b60006020820190508181036000830152612b0c81612ad0565b9050919050565b7f4552433732313a20746f6b656e20616c7265616479206d696e74656400000000600082015250565b6000612b49601c83611b20565b9150612b5482612b13565b602082019050919050565b60006020820190508181036000830152612b7881612b3c565b905091905056fea2646970667358221220d00dfca35750690b3251e35e20f242a31789dc75fc69f715d03463e8df45abf664736f6c63430008110033",
  "linkReferences": {},
  "deployedLinkReferences": {}
}